{
  "contractName": "TheFunixCryptoSim",
  "abi": [
    {
      "inputs": [],
      "stateMutability": "nonpayable",
      "type": "constructor"
    },
    {
      "anonymous": false,
      "inputs": [
        {
          "indexed": true,
          "internalType": "address",
          "name": "owner",
          "type": "address"
        },
        {
          "indexed": true,
          "internalType": "address",
          "name": "approved",
          "type": "address"
        },
        {
          "indexed": true,
          "internalType": "uint256",
          "name": "tokenId",
          "type": "uint256"
        }
      ],
      "name": "Approval",
      "type": "event"
    },
    {
      "anonymous": false,
      "inputs": [
        {
          "indexed": true,
          "internalType": "address",
          "name": "owner",
          "type": "address"
        },
        {
          "indexed": true,
          "internalType": "address",
          "name": "operator",
          "type": "address"
        },
        {
          "indexed": false,
          "internalType": "bool",
          "name": "approved",
          "type": "bool"
        }
      ],
      "name": "ApprovalForAll",
      "type": "event"
    },
    {
      "anonymous": false,
      "inputs": [
        {
          "indexed": false,
          "internalType": "address",
          "name": "owner",
          "type": "address"
        },
        {
          "indexed": false,
          "internalType": "uint256",
          "name": "id",
          "type": "uint256"
        },
        {
          "indexed": false,
          "internalType": "uint256",
          "name": "matronId",
          "type": "uint256"
        },
        {
          "indexed": false,
          "internalType": "uint256",
          "name": "sireId",
          "type": "uint256"
        },
        {
          "components": [
            {
              "internalType": "uint8",
              "name": "body",
              "type": "uint8"
            },
            {
              "internalType": "uint8",
              "name": "eye",
              "type": "uint8"
            },
            {
              "internalType": "uint8",
              "name": "hairstyle",
              "type": "uint8"
            },
            {
              "internalType": "uint8",
              "name": "outfit",
              "type": "uint8"
            },
            {
              "internalType": "uint8",
              "name": "accessory",
              "type": "uint8"
            },
            {
              "internalType": "uint8",
              "name": "hiddenGenes",
              "type": "uint8"
            },
            {
              "internalType": "uint8",
              "name": "generation",
              "type": "uint8"
            }
          ],
          "indexed": false,
          "internalType": "struct TheFunixCryptoSim.SimAttributes",
          "name": "attributes",
          "type": "tuple"
        }
      ],
      "name": "Birth",
      "type": "event"
    },
    {
      "anonymous": false,
      "inputs": [
        {
          "indexed": true,
          "internalType": "address",
          "name": "previousOwner",
          "type": "address"
        },
        {
          "indexed": true,
          "internalType": "address",
          "name": "newOwner",
          "type": "address"
        }
      ],
      "name": "OwnershipTransferred",
      "type": "event"
    },
    {
      "anonymous": false,
      "inputs": [
        {
          "indexed": true,
          "internalType": "address",
          "name": "from",
          "type": "address"
        },
        {
          "indexed": true,
          "internalType": "address",
          "name": "to",
          "type": "address"
        },
        {
          "indexed": true,
          "internalType": "uint256",
          "name": "tokenId",
          "type": "uint256"
        }
      ],
      "name": "Transfer",
      "type": "event"
    },
    {
      "inputs": [
        {
          "internalType": "address",
          "name": "to",
          "type": "address"
        },
        {
          "internalType": "uint256",
          "name": "tokenId",
          "type": "uint256"
        }
      ],
      "name": "approve",
      "outputs": [],
      "stateMutability": "nonpayable",
      "type": "function"
    },
    {
      "inputs": [
        {
          "internalType": "address",
          "name": "owner",
          "type": "address"
        }
      ],
      "name": "balanceOf",
      "outputs": [
        {
          "internalType": "uint256",
          "name": "",
          "type": "uint256"
        }
      ],
      "stateMutability": "view",
      "type": "function",
      "constant": true
    },
    {
      "inputs": [
        {
          "internalType": "uint256",
          "name": "tokenId",
          "type": "uint256"
        }
      ],
      "name": "getApproved",
      "outputs": [
        {
          "internalType": "address",
          "name": "",
          "type": "address"
        }
      ],
      "stateMutability": "view",
      "type": "function",
      "constant": true
    },
    {
      "inputs": [
        {
          "internalType": "address",
          "name": "owner",
          "type": "address"
        },
        {
          "internalType": "address",
          "name": "operator",
          "type": "address"
        }
      ],
      "name": "isApprovedForAll",
      "outputs": [
        {
          "internalType": "bool",
          "name": "",
          "type": "bool"
        }
      ],
      "stateMutability": "view",
      "type": "function",
      "constant": true
    },
    {
      "inputs": [],
      "name": "name",
      "outputs": [
        {
          "internalType": "string",
          "name": "",
          "type": "string"
        }
      ],
      "stateMutability": "view",
      "type": "function",
      "constant": true
    },
    {
      "inputs": [],
      "name": "owner",
      "outputs": [
        {
          "internalType": "address",
          "name": "",
          "type": "address"
        }
      ],
      "stateMutability": "view",
      "type": "function",
      "constant": true
    },
    {
      "inputs": [
        {
          "internalType": "uint256",
          "name": "tokenId",
          "type": "uint256"
        }
      ],
      "name": "ownerOf",
      "outputs": [
        {
          "internalType": "address",
          "name": "",
          "type": "address"
        }
      ],
      "stateMutability": "view",
      "type": "function",
      "constant": true
    },
    {
      "inputs": [],
      "name": "renounceOwnership",
      "outputs": [],
      "stateMutability": "nonpayable",
      "type": "function"
    },
    {
      "inputs": [
        {
          "internalType": "address",
          "name": "from",
          "type": "address"
        },
        {
          "internalType": "address",
          "name": "to",
          "type": "address"
        },
        {
          "internalType": "uint256",
          "name": "tokenId",
          "type": "uint256"
        }
      ],
      "name": "safeTransferFrom",
      "outputs": [],
      "stateMutability": "nonpayable",
      "type": "function"
    },
    {
      "inputs": [
        {
          "internalType": "address",
          "name": "from",
          "type": "address"
        },
        {
          "internalType": "address",
          "name": "to",
          "type": "address"
        },
        {
          "internalType": "uint256",
          "name": "tokenId",
          "type": "uint256"
        },
        {
          "internalType": "bytes",
          "name": "data",
          "type": "bytes"
        }
      ],
      "name": "safeTransferFrom",
      "outputs": [],
      "stateMutability": "nonpayable",
      "type": "function"
    },
    {
      "inputs": [
        {
          "internalType": "address",
          "name": "operator",
          "type": "address"
        },
        {
          "internalType": "bool",
          "name": "approved",
          "type": "bool"
        }
      ],
      "name": "setApprovalForAll",
      "outputs": [],
      "stateMutability": "nonpayable",
      "type": "function"
    },
    {
      "inputs": [
        {
          "internalType": "uint256",
          "name": "",
          "type": "uint256"
        }
      ],
      "name": "sims",
      "outputs": [
        {
          "components": [
            {
              "internalType": "uint8",
              "name": "body",
              "type": "uint8"
            },
            {
              "internalType": "uint8",
              "name": "eye",
              "type": "uint8"
            },
            {
              "internalType": "uint8",
              "name": "hairstyle",
              "type": "uint8"
            },
            {
              "internalType": "uint8",
              "name": "outfit",
              "type": "uint8"
            },
            {
              "internalType": "uint8",
              "name": "accessory",
              "type": "uint8"
            },
            {
              "internalType": "uint8",
              "name": "hiddenGenes",
              "type": "uint8"
            },
            {
              "internalType": "uint8",
              "name": "generation",
              "type": "uint8"
            }
          ],
          "internalType": "struct TheFunixCryptoSim.SimAttributes",
          "name": "attributes",
          "type": "tuple"
        },
        {
          "internalType": "uint256",
          "name": "matronId",
          "type": "uint256"
        },
        {
          "internalType": "uint256",
          "name": "sireId",
          "type": "uint256"
        }
      ],
      "stateMutability": "view",
      "type": "function",
      "constant": true
    },
    {
      "inputs": [
        {
          "internalType": "bytes4",
          "name": "interfaceId",
          "type": "bytes4"
        }
      ],
      "name": "supportsInterface",
      "outputs": [
        {
          "internalType": "bool",
          "name": "",
          "type": "bool"
        }
      ],
      "stateMutability": "view",
      "type": "function",
      "constant": true
    },
    {
      "inputs": [],
      "name": "symbol",
      "outputs": [
        {
          "internalType": "string",
          "name": "",
          "type": "string"
        }
      ],
      "stateMutability": "view",
      "type": "function",
      "constant": true
    },
    {
      "inputs": [
        {
          "internalType": "uint256",
          "name": "tokenId",
          "type": "uint256"
        }
      ],
      "name": "tokenURI",
      "outputs": [
        {
          "internalType": "string",
          "name": "",
          "type": "string"
        }
      ],
      "stateMutability": "view",
      "type": "function",
      "constant": true
    },
    {
      "inputs": [
        {
          "internalType": "address",
          "name": "from",
          "type": "address"
        },
        {
          "internalType": "address",
          "name": "to",
          "type": "address"
        },
        {
          "internalType": "uint256",
          "name": "tokenId",
          "type": "uint256"
        }
      ],
      "name": "transferFrom",
      "outputs": [],
      "stateMutability": "nonpayable",
      "type": "function"
    },
    {
      "inputs": [
        {
          "internalType": "address",
          "name": "newOwner",
          "type": "address"
        }
      ],
      "name": "transferOwnership",
      "outputs": [],
      "stateMutability": "nonpayable",
      "type": "function"
    },
    {
      "inputs": [],
      "name": "buySim",
      "outputs": [
        {
          "internalType": "uint256",
          "name": "",
          "type": "uint256"
        }
      ],
      "stateMutability": "payable",
      "type": "function",
      "payable": true
    },
    {
      "inputs": [
        {
          "internalType": "uint256",
          "name": "matronId",
          "type": "uint256"
        },
        {
          "internalType": "uint256",
          "name": "sireId",
          "type": "uint256"
        }
      ],
      "name": "breedSim",
      "outputs": [
        {
          "internalType": "uint256",
          "name": "",
          "type": "uint256"
        }
      ],
      "stateMutability": "payable",
      "type": "function",
      "payable": true
    },
    {
      "inputs": [
        {
          "internalType": "uint256",
          "name": "simId",
          "type": "uint256"
        }
      ],
      "name": "getSimDetails",
      "outputs": [
        {
          "internalType": "uint256",
          "name": "",
          "type": "uint256"
        },
        {
          "components": [
            {
              "internalType": "uint8",
              "name": "body",
              "type": "uint8"
            },
            {
              "internalType": "uint8",
              "name": "eye",
              "type": "uint8"
            },
            {
              "internalType": "uint8",
              "name": "hairstyle",
              "type": "uint8"
            },
            {
              "internalType": "uint8",
              "name": "outfit",
              "type": "uint8"
            },
            {
              "internalType": "uint8",
              "name": "accessory",
              "type": "uint8"
            },
            {
              "internalType": "uint8",
              "name": "hiddenGenes",
              "type": "uint8"
            },
            {
              "internalType": "uint8",
              "name": "generation",
              "type": "uint8"
            }
          ],
          "internalType": "struct TheFunixCryptoSim.SimAttributes",
          "name": "",
          "type": "tuple"
        },
        {
          "internalType": "uint256",
          "name": "",
          "type": "uint256"
        },
        {
          "internalType": "uint256",
          "name": "",
          "type": "uint256"
        }
      ],
      "stateMutability": "view",
      "type": "function",
      "constant": true
    },
    {
      "inputs": [],
      "name": "ownedSims",
      "outputs": [
        {
          "internalType": "uint256[]",
          "name": "",
          "type": "uint256[]"
        }
      ],
      "stateMutability": "view",
      "type": "function",
      "constant": true
    }
  ],
  "bytecode": "0x60806040523480156200001157600080fd5b506040518060400160405280601281526020017f54686546756e697843727970746f53696d7300000000000000000000000000008152506040518060400160405280600381526020017f46435300000000000000000000000000000000000000000000000000000000008152508160009080519060200190620000969291906200092f565b508060019080519060200190620000af9291906200092f565b505050620000d2620000c6620000e860201b60201c565b620000f060201b60201c565b620000e2620001b660201b60201c565b62000c09565b600033905090565b6000600660009054906101000a900473ffffffffffffffffffffffffffffffffffffffff16905081600660006101000a81548173ffffffffffffffffffffffffffffffffffffffff021916908373ffffffffffffffffffffffffffffffffffffffff1602179055508173ffffffffffffffffffffffffffffffffffffffff168173ffffffffffffffffffffffffffffffffffffffff167f8be0079c531659141344cd1fd0a4f28419497f9722a3daafe3b4186f6b6457e060405160405180910390a35050565b60006040518060e00160405280600060ff168152602001600060ff168152602001600060ff168152602001600060ff168152602001600060ff168152602001600060ff168152602001600060ff16815250905060006040518060e00160405280600360ff168152602001600760ff168152602001607f60ff168152602001601f60ff168152602001601f60ff168152602001600060ff168152602001600060ff16815250905060076040518060600160405280848152602001600081526020016000815250908060018154018082558091505060019003906000526020600020906003020160009091909190915060008201518160000160008201518160000160006101000a81548160ff021916908360ff16021790555060208201518160000160016101000a81548160ff021916908360ff16021790555060408201518160000160026101000a81548160ff021916908360ff16021790555060608201518160000160036101000a81548160ff021916908360ff16021790555060808201518160000160046101000a81548160ff021916908360ff16021790555060a08201518160000160056101000a81548160ff021916908360ff16021790555060c08201518160000160066101000a81548160ff021916908360ff160217905550505060208201518160010155604082015181600201555050620003c43360006200053060201b620010521760201c565b60076040518060600160405280838152602001600081526020016000815250908060018154018082558091505060019003906000526020600020906003020160009091909190915060008201518160000160008201518160000160006101000a81548160ff021916908360ff16021790555060208201518160000160016101000a81548160ff021916908360ff16021790555060408201518160000160026101000a81548160ff021916908360ff16021790555060608201518160000160036101000a81548160ff021916908360ff16021790555060808201518160000160046101000a81548160ff021916908360ff16021790555060a08201518160000160056101000a81548160ff021916908360ff16021790555060c08201518160000160066101000a81548160ff021916908360ff1602179055505050602082015181600101556040820151816002015550506200052c3360016200053060201b620010521760201c565b5050565b600073ffffffffffffffffffffffffffffffffffffffff168273ffffffffffffffffffffffffffffffffffffffff1603620005a2576040517f08c379a0000000000000000000000000000000000000000000000000000000008152600401620005999062000a40565b60405180910390fd5b620005b3816200077660201b60201c565b15620005f6576040517f08c379a0000000000000000000000000000000000000000000000000000000008152600401620005ed9062000ab2565b60405180910390fd5b6200060c600083836001620007bf60201b60201c565b6200061d816200077660201b60201c565b1562000660576040517f08c379a0000000000000000000000000000000000000000000000000000000008152600401620006579062000ab2565b60405180910390fd5b6001600360008473ffffffffffffffffffffffffffffffffffffffff1673ffffffffffffffffffffffffffffffffffffffff16815260200190815260200160002060008282540192505081905550816002600083815260200190815260200160002060006101000a81548173ffffffffffffffffffffffffffffffffffffffff021916908373ffffffffffffffffffffffffffffffffffffffff160217905550808273ffffffffffffffffffffffffffffffffffffffff16600073ffffffffffffffffffffffffffffffffffffffff167fddf252ad1be2c89b69c2b068fc378daa952ba7f163c4a11628f55a4df523b3ef60405160405180910390a462000772600083836001620008ec60201b60201c565b5050565b60008073ffffffffffffffffffffffffffffffffffffffff16620007a083620008f260201b60201c565b73ffffffffffffffffffffffffffffffffffffffff1614159050919050565b6001811115620008e657600073ffffffffffffffffffffffffffffffffffffffff168473ffffffffffffffffffffffffffffffffffffffff1614620008575780600360008673ffffffffffffffffffffffffffffffffffffffff1673ffffffffffffffffffffffffffffffffffffffff16815260200190815260200160002060008282546200084f919062000b0d565b925050819055505b600073ffffffffffffffffffffffffffffffffffffffff168373ffffffffffffffffffffffffffffffffffffffff1614620008e55780600360008573ffffffffffffffffffffffffffffffffffffffff1673ffffffffffffffffffffffffffffffffffffffff1681526020019081526020016000206000828254620008dd919062000b48565b925050819055505b5b50505050565b50505050565b60006002600083815260200190815260200160002060009054906101000a900473ffffffffffffffffffffffffffffffffffffffff169050919050565b8280546200093d9062000bd4565b90600052602060002090601f016020900481019282620009615760008555620009ad565b82601f106200097c57805160ff1916838001178555620009ad565b82800160010185558215620009ad579182015b82811115620009ac5782518255916020019190600101906200098f565b5b509050620009bc9190620009c0565b5090565b5b80821115620009db576000816000905550600101620009c1565b5090565b600082825260208201905092915050565b7f4552433732313a206d696e7420746f20746865207a65726f2061646472657373600082015250565b600062000a28602083620009df565b915062000a3582620009f0565b602082019050919050565b6000602082019050818103600083015262000a5b8162000a19565b9050919050565b7f4552433732313a20746f6b656e20616c7265616479206d696e74656400000000600082015250565b600062000a9a601c83620009df565b915062000aa78262000a62565b602082019050919050565b6000602082019050818103600083015262000acd8162000a8b565b9050919050565b6000819050919050565b7f4e487b7100000000000000000000000000000000000000000000000000000000600052601160045260246000fd5b600062000b1a8262000ad4565b915062000b278362000ad4565b92508282101562000b3d5762000b3c62000ade565b5b828203905092915050565b600062000b558262000ad4565b915062000b628362000ad4565b9250827fffffffffffffffffffffffffffffffffffffffffffffffffffffffffffffffff0382111562000b9a5762000b9962000ade565b5b828201905092915050565b7f4e487b7100000000000000000000000000000000000000000000000000000000600052602260045260246000fd5b6000600282049050600182168062000bed57607f821691505b60208210810362000c035762000c0262000ba5565b5b50919050565b613c518062000c196000396000f3fe60806040526004361061012a5760003560e01c8063715018a6116100ab578063b88d4fde1161006f578063b88d4fde146103fc578063c87b56dd14610425578063d561713914610462578063e985e9c514610492578063f2fde38b146104cf578063f498d256146104f85761012a565b8063715018a6146103265780638da5cb5b1461033d57806395d89b41146103685780639c055ed814610393578063a22cb465146103d35761012a565b80631e4e704b116100f25780631e4e704b1461021b57806323b872dd1461025a57806342842e0e146102835780636352211e146102ac57806370a08231146102e95761012a565b806301ffc9a71461012f57806306fdde031461016c578063081812fc14610197578063095ea7b3146101d4578063102e1c71146101fd575b600080fd5b34801561013b57600080fd5b50610156600480360381019061015191906129b7565b610523565b60405161016391906129ff565b60405180910390f35b34801561017857600080fd5b50610181610605565b60405161018e9190612ab3565b60405180910390f35b3480156101a357600080fd5b506101be60048036038101906101b99190612b0b565b610697565b6040516101cb9190612b79565b60405180910390f35b3480156101e057600080fd5b506101fb60048036038101906101f69190612bc0565b6106dd565b005b6102056107f4565b6040516102129190612c0f565b60405180910390f35b34801561022757600080fd5b50610242600480360381019061023d9190612b0b565b610828565b60405161025193929190612cd4565b60405180910390f35b34801561026657600080fd5b50610281600480360381019061027c9190612d0d565b610937565b005b34801561028f57600080fd5b506102aa60048036038101906102a59190612d0d565b610997565b005b3480156102b857600080fd5b506102d360048036038101906102ce9190612b0b565b6109b7565b6040516102e09190612b79565b60405180910390f35b3480156102f557600080fd5b50610310600480360381019061030b9190612d60565b610a3d565b60405161031d9190612c0f565b60405180910390f35b34801561033257600080fd5b5061033b610af4565b005b34801561034957600080fd5b50610352610b08565b60405161035f9190612b79565b60405180910390f35b34801561037457600080fd5b5061037d610b32565b60405161038a9190612ab3565b60405180910390f35b34801561039f57600080fd5b506103ba60048036038101906103b59190612b0b565b610bc4565b6040516103ca9493929190612d8d565b60405180910390f35b3480156103df57600080fd5b506103fa60048036038101906103f59190612e01565b610cef565b005b34801561040857600080fd5b50610423600480360381019061041e9190612f76565b610d05565b005b34801561043157600080fd5b5061044c60048036038101906104479190612b0b565b610d67565b6040516104599190612ab3565b60405180910390f35b61047c60048036038101906104779190612ff9565b610dcf565b6040516104899190612c0f565b60405180910390f35b34801561049e57600080fd5b506104b960048036038101906104b49190613039565b610de4565b6040516104c691906129ff565b60405180910390f35b3480156104db57600080fd5b506104f660048036038101906104f19190612d60565b610e78565b005b34801561050457600080fd5b5061050d610efb565b60405161051a9190613137565b60405180910390f35b60007f80ac58cd000000000000000000000000000000000000000000000000000000007bffffffffffffffffffffffffffffffffffffffffffffffffffffffff1916827bffffffffffffffffffffffffffffffffffffffffffffffffffffffff191614806105ee57507f5b5e139f000000000000000000000000000000000000000000000000000000007bffffffffffffffffffffffffffffffffffffffffffffffffffffffff1916827bffffffffffffffffffffffffffffffffffffffffffffffffffffffff1916145b806105fe57506105fd8261126f565b5b9050919050565b60606000805461061490613188565b80601f016020809104026020016040519081016040528092919081815260200182805461064090613188565b801561068d5780601f106106625761010080835404028352916020019161068d565b820191906000526020600020905b81548152906001019060200180831161067057829003601f168201915b5050505050905090565b60006106a2826112d9565b6004600083815260200190815260200160002060009054906101000a900473ffffffffffffffffffffffffffffffffffffffff169050919050565b60006106e8826109b7565b90508073ffffffffffffffffffffffffffffffffffffffff168373ffffffffffffffffffffffffffffffffffffffff1603610758576040517f08c379a000000000000000000000000000000000000000000000000000000000815260040161074f9061322b565b60405180910390fd5b8073ffffffffffffffffffffffffffffffffffffffff16610777611324565b73ffffffffffffffffffffffffffffffffffffffff1614806107a657506107a5816107a0611324565b610de4565b5b6107e5576040517f08c379a00000000000000000000000000000000000000000000000000000000081526004016107dc906132bd565b60405180910390fd5b6107ef838361132c565b505050565b600061082360006007805490506001600780549050610813919061330c565b61081d919061336f565b336113e5565b905090565b6007818154811061083857600080fd5b9060005260206000209060030201600091509050806000016040518060e00160405290816000820160009054906101000a900460ff1660ff1660ff1681526020016000820160019054906101000a900460ff1660ff1660ff1681526020016000820160029054906101000a900460ff1660ff1660ff1681526020016000820160039054906101000a900460ff1660ff1660ff1681526020016000820160049054906101000a900460ff1660ff1660ff1681526020016000820160059054906101000a900460ff1660ff1660ff1681526020016000820160069054906101000a900460ff1660ff1660ff1681525050908060010154908060020154905083565b610948610942611324565b826115f8565b610987576040517f08c379a000000000000000000000000000000000000000000000000000000000815260040161097e90613412565b60405180910390fd5b61099283838361168d565b505050565b6109b283838360405180602001604052806000815250610d05565b505050565b6000806109c383611986565b9050600073ffffffffffffffffffffffffffffffffffffffff168173ffffffffffffffffffffffffffffffffffffffff1603610a34576040517f08c379a0000000000000000000000000000000000000000000000000000000008152600401610a2b9061347e565b60405180910390fd5b80915050919050565b60008073ffffffffffffffffffffffffffffffffffffffff168273ffffffffffffffffffffffffffffffffffffffff1603610aad576040517f08c379a0000000000000000000000000000000000000000000000000000000008152600401610aa490613510565b60405180910390fd5b600360008373ffffffffffffffffffffffffffffffffffffffff1673ffffffffffffffffffffffffffffffffffffffff168152602001908152602001600020549050919050565b610afc6119c3565b610b066000611a41565b565b6000600660009054906101000a900473ffffffffffffffffffffffffffffffffffffffff16905090565b606060018054610b4190613188565b80601f0160208091040260200160405190810160405280929190818152602001828054610b6d90613188565b8015610bba5780601f10610b8f57610100808354040283529160200191610bba565b820191906000526020600020905b815481529060010190602001808311610b9d57829003601f168201915b5050505050905090565b6000610bce6128f9565b600080600060078681548110610be757610be6613530565b5b90600052602060002090600302019050858160000182600101548360020154826040518060e00160405290816000820160009054906101000a900460ff1660ff1660ff1681526020016000820160019054906101000a900460ff1660ff1660ff1681526020016000820160029054906101000a900460ff1660ff1660ff1681526020016000820160039054906101000a900460ff1660ff1660ff1681526020016000820160049054906101000a900460ff1660ff1660ff1681526020016000820160059054906101000a900460ff1660ff1660ff1681526020016000820160069054906101000a900460ff1660ff1660ff168152505092509450945094509450509193509193565b610d01610cfa611324565b8383611b07565b5050565b610d16610d10611324565b836115f8565b610d55576040517f08c379a0000000000000000000000000000000000000000000000000000000008152600401610d4c90613412565b60405180910390fd5b610d6184848484611c73565b50505050565b6060610d72826112d9565b6000610d7c611ccf565b90506000815111610d9c5760405180602001604052806000815250610dc7565b80610da684611ce6565b604051602001610db792919061359b565b6040516020818303038152906040525b915050919050565b6000610ddc8383336113e5565b905092915050565b6000600560008473ffffffffffffffffffffffffffffffffffffffff1673ffffffffffffffffffffffffffffffffffffffff16815260200190815260200160002060008373ffffffffffffffffffffffffffffffffffffffff1673ffffffffffffffffffffffffffffffffffffffff16815260200190815260200160002060009054906101000a900460ff16905092915050565b610e806119c3565b600073ffffffffffffffffffffffffffffffffffffffff168173ffffffffffffffffffffffffffffffffffffffff1603610eef576040517f08c379a0000000000000000000000000000000000000000000000000000000008152600401610ee690613631565b60405180910390fd5b610ef881611a41565b50565b60606000610f0833610a3d565b905060008103610f6457600067ffffffffffffffff811115610f2d57610f2c612e4b565b5b604051908082528060200260200182016040528015610f5b5781602001602082028036833780820191505090505b5091505061104f565b60008167ffffffffffffffff811115610f8057610f7f612e4b565b5b604051908082528060200260200182016040528015610fae5781602001602082028036833780820191505090505b509050600060078054905090506000805b82811015611046573373ffffffffffffffffffffffffffffffffffffffff16610fe7826109b7565b73ffffffffffffffffffffffffffffffffffffffff1603611032578084838151811061101657611015613530565b5b60200260200101818152505060018261102f9190613651565b91505b60018161103f9190613651565b9050610fbf565b83955050505050505b90565b600073ffffffffffffffffffffffffffffffffffffffff168273ffffffffffffffffffffffffffffffffffffffff16036110c1576040517f08c379a00000000000000000000000000000000000000000000000000000000081526004016110b8906136f3565b60405180910390fd5b6110ca81611db4565b1561110a576040517f08c379a00000000000000000000000000000000000000000000000000000000081526004016111019061375f565b60405180910390fd5b611118600083836001611df5565b61112181611db4565b15611161576040517f08c379a00000000000000000000000000000000000000000000000000000000081526004016111589061375f565b60405180910390fd5b6001600360008473ffffffffffffffffffffffffffffffffffffffff1673ffffffffffffffffffffffffffffffffffffffff16815260200190815260200160002060008282540192505081905550816002600083815260200190815260200160002060006101000a81548173ffffffffffffffffffffffffffffffffffffffff021916908373ffffffffffffffffffffffffffffffffffffffff160217905550808273ffffffffffffffffffffffffffffffffffffffff16600073ffffffffffffffffffffffffffffffffffffffff167fddf252ad1be2c89b69c2b068fc378daa952ba7f163c4a11628f55a4df523b3ef60405160405180910390a461126b600083836001611f1b565b5050565b60007f01ffc9a7000000000000000000000000000000000000000000000000000000007bffffffffffffffffffffffffffffffffffffffffffffffffffffffff1916827bffffffffffffffffffffffffffffffffffffffffffffffffffffffff1916149050919050565b6112e281611db4565b611321576040517f08c379a00000000000000000000000000000000000000000000000000000000081526004016113189061347e565b60405180910390fd5b50565b600033905090565b816004600083815260200190815260200160002060006101000a81548173ffffffffffffffffffffffffffffffffffffffff021916908373ffffffffffffffffffffffffffffffffffffffff160217905550808273ffffffffffffffffffffffffffffffffffffffff1661139f836109b7565b73ffffffffffffffffffffffffffffffffffffffff167f8c5be1e5ebec7d5bd14f71427d1e84f3dd0314c0f7b2291e5b200ac8c7c3b92560405160405180910390a45050565b60008073ffffffffffffffffffffffffffffffffffffffff168273ffffffffffffffffffffffffffffffffffffffff160361141f57600080fd5b600061142b8585611f21565b905060006040518060600160405280838152602001878152602001868152509050600781908060018154018082558091505060019003906000526020600020906003020160009091909190915060008201518160000160008201518160000160006101000a81548160ff021916908360ff16021790555060208201518160000160016101000a81548160ff021916908360ff16021790555060408201518160000160026101000a81548160ff021916908360ff16021790555060608201518160000160036101000a81548160ff021916908360ff16021790555060808201518160000160046101000a81548160ff021916908360ff16021790555060a08201518160000160056101000a81548160ff021916908360ff16021790555060c08201518160000160066101000a81548160ff021916908360ff16021790555050506020820151816001015560408201518160020155505060006001600780549050611594919061330c565b90506115a08582611052565b7f7b7a487757a29444e1a3c0410ec6c48b4282109a38b177356874747bbb4a5c8185828460200151856040015186600001516040516115e395949392919061377f565b60405180910390a18093505050509392505050565b600080611604836109b7565b90508073ffffffffffffffffffffffffffffffffffffffff168473ffffffffffffffffffffffffffffffffffffffff16148061164657506116458185610de4565b5b8061168457508373ffffffffffffffffffffffffffffffffffffffff1661166c84610697565b73ffffffffffffffffffffffffffffffffffffffff16145b91505092915050565b8273ffffffffffffffffffffffffffffffffffffffff166116ad826109b7565b73ffffffffffffffffffffffffffffffffffffffff1614611703576040517f08c379a00000000000000000000000000000000000000000000000000000000081526004016116fa90613845565b60405180910390fd5b600073ffffffffffffffffffffffffffffffffffffffff168273ffffffffffffffffffffffffffffffffffffffff1603611772576040517f08c379a0000000000000000000000000000000000000000000000000000000008152600401611769906138d7565b60405180910390fd5b61177f8383836001611df5565b8273ffffffffffffffffffffffffffffffffffffffff1661179f826109b7565b73ffffffffffffffffffffffffffffffffffffffff16146117f5576040517f08c379a00000000000000000000000000000000000000000000000000000000081526004016117ec90613845565b60405180910390fd5b6004600082815260200190815260200160002060006101000a81549073ffffffffffffffffffffffffffffffffffffffff02191690556001600360008573ffffffffffffffffffffffffffffffffffffffff1673ffffffffffffffffffffffffffffffffffffffff168152602001908152602001600020600082825403925050819055506001600360008473ffffffffffffffffffffffffffffffffffffffff1673ffffffffffffffffffffffffffffffffffffffff16815260200190815260200160002060008282540192505081905550816002600083815260200190815260200160002060006101000a81548173ffffffffffffffffffffffffffffffffffffffff021916908373ffffffffffffffffffffffffffffffffffffffff160217905550808273ffffffffffffffffffffffffffffffffffffffff168473ffffffffffffffffffffffffffffffffffffffff167fddf252ad1be2c89b69c2b068fc378daa952ba7f163c4a11628f55a4df523b3ef60405160405180910390a46119818383836001611f1b565b505050565b60006002600083815260200190815260200160002060009054906101000a900473ffffffffffffffffffffffffffffffffffffffff169050919050565b6119cb611324565b73ffffffffffffffffffffffffffffffffffffffff166119e9610b08565b73ffffffffffffffffffffffffffffffffffffffff1614611a3f576040517f08c379a0000000000000000000000000000000000000000000000000000000008152600401611a3690613943565b60405180910390fd5b565b6000600660009054906101000a900473ffffffffffffffffffffffffffffffffffffffff16905081600660006101000a81548173ffffffffffffffffffffffffffffffffffffffff021916908373ffffffffffffffffffffffffffffffffffffffff1602179055508173ffffffffffffffffffffffffffffffffffffffff168173ffffffffffffffffffffffffffffffffffffffff167f8be0079c531659141344cd1fd0a4f28419497f9722a3daafe3b4186f6b6457e060405160405180910390a35050565b8173ffffffffffffffffffffffffffffffffffffffff168373ffffffffffffffffffffffffffffffffffffffff1603611b75576040517f08c379a0000000000000000000000000000000000000000000000000000000008152600401611b6c906139af565b60405180910390fd5b80600560008573ffffffffffffffffffffffffffffffffffffffff1673ffffffffffffffffffffffffffffffffffffffff16815260200190815260200160002060008473ffffffffffffffffffffffffffffffffffffffff1673ffffffffffffffffffffffffffffffffffffffff16815260200190815260200160002060006101000a81548160ff0219169083151502179055508173ffffffffffffffffffffffffffffffffffffffff168373ffffffffffffffffffffffffffffffffffffffff167f17307eab39ab6107e8899845ad3d59bd9653f200f220920489ca2b5937696c3183604051611c6691906129ff565b60405180910390a3505050565b611c7e84848461168d565b611c8a848484846125fc565b611cc9576040517f08c379a0000000000000000000000000000000000000000000000000000000008152600401611cc090613a41565b60405180910390fd5b50505050565b606060405180602001604052806000815250905090565b606060006001611cf584612783565b01905060008167ffffffffffffffff811115611d1457611d13612e4b565b5b6040519080825280601f01601f191660200182016040528015611d465781602001600182028036833780820191505090505b509050600082602001820190505b600115611da9578080600190039150507f3031323334353637383961626364656600000000000000000000000000000000600a86061a8153600a8581611d9d57611d9c613340565b5b04945060008503611d54575b819350505050919050565b60008073ffffffffffffffffffffffffffffffffffffffff16611dd683611986565b73ffffffffffffffffffffffffffffffffffffffff1614159050919050565b6001811115611f1557600073ffffffffffffffffffffffffffffffffffffffff168473ffffffffffffffffffffffffffffffffffffffff1614611e895780600360008673ffffffffffffffffffffffffffffffffffffffff1673ffffffffffffffffffffffffffffffffffffffff1681526020019081526020016000206000828254611e81919061330c565b925050819055505b600073ffffffffffffffffffffffffffffffffffffffff168373ffffffffffffffffffffffffffffffffffffffff1614611f145780600360008573ffffffffffffffffffffffffffffffffffffffff1673ffffffffffffffffffffffffffffffffffffffff1681526020019081526020016000206000828254611f0c9190613651565b925050819055505b5b50505050565b50505050565b611f296128f9565b600060078481548110611f3f57611f3e613530565b5b90600052602060002090600302016000016040518060e00160405290816000820160009054906101000a900460ff1660ff1660ff1681526020016000820160019054906101000a900460ff1660ff1660ff1681526020016000820160029054906101000a900460ff1660ff1660ff1681526020016000820160039054906101000a900460ff1660ff1660ff1681526020016000820160049054906101000a900460ff1660ff1660ff1681526020016000820160059054906101000a900460ff1660ff1660ff1681526020016000820160069054906101000a900460ff1660ff1660ff1681525050905060006007848154811061203e5761203d613530565b5b90600052602060002090600302016000016040518060e00160405290816000820160009054906101000a900460ff1660ff1660ff1681526020016000820160019054906101000a900460ff1660ff1660ff1681526020016000820160029054906101000a900460ff1660ff1660ff1681526020016000820160039054906101000a900460ff1660ff1660ff1681526020016000820160049054906101000a900460ff1660ff1660ff1681526020016000820160059054906101000a900460ff1660ff1660ff1681526020016000820160069054906101000a900460ff1660ff1660ff1681525050905060008260a0015190508160a0015160ff168360a0015160ff160361217457600460038360a00151836121599190613a61565b6121639190613a9c565b61216d9190613ad3565b905061218f565b8160a0015160ff168160ff16101561218e578160a0015190505b5b60006040518060e00160405280600060ff168152602001600060ff168152602001600060ff168152602001600060ff168152602001600060ff168152602001600060ff168152602001600060ff16815250905060018460a001516121f39190613a9c565b8160c0019060ff16908160ff16815250508360c0015160ff168360c0015160ff16111561223d5760018460a0015161222b9190613a9c565b8160c0019060ff16908160ff16815250505b600460038460a001518660a001516122559190613a61565b61225f9190613a9c565b6122699190613ad3565b816000019060ff16908160ff168152505060008260ff1603612337578260a00151816020019060ff16908160ff16815250508360a00151816040019060ff16908160ff1681525050602060018560a001518560a001516122c99190613a9c565b6122d39190613a9c565b6122dd9190613ad3565b816060019060ff16908160ff168152505060208460a001518460a001516123049190613a9c565b61230e9190613ad3565b816080019060ff16908160ff168152505060008160a0019060ff16908160ff16815250506125ef565b60018260ff160361241a578360a00151816020019060ff16908160ff16815250506080808560a001518560a0015161236f9190613b04565b6123799190613a9c565b6123839190613ad3565b816040019060ff16908160ff1681525050602060018560a001518560a001516123ac9190613a9c565b6123b69190613a9c565b6123c09190613ad3565b816060019060ff16908160ff168152505060208460a001518460a001516123e79190613a9c565b6123f19190613ad3565b816080019060ff16908160ff168152505060018160a0019060ff16908160ff16815250506125ee565b60028260ff16036125185760088460a001518460a0015161243b9190613a9c565b6124459190613ad3565b816020019060ff16908160ff16815250506080808560a001518560a0015161246d9190613b04565b6124779190613a9c565b6124819190613ad3565b816040019060ff16908160ff168152505060208460a001518460a001516124a89190613a9c565b6124b29190613ad3565b816060019060ff16908160ff16815250506020601f8560a001518560a001516124db9190613a9c565b6124e59190613a9c565b6124ef9190613ad3565b816080019060ff16908160ff168152505060028160a0019060ff16908160ff16815250506125ed565b60038260ff16036125ec5760088460a001518460a001516125399190613a9c565b6125439190613ad3565b816020019060ff16908160ff16815250508260a00151816040019060ff16908160ff168152505060208460a001518460a001516125809190613a9c565b61258a9190613ad3565b816060019060ff16908160ff16815250506020601f8560a001518560a001516125b39190613a9c565b6125bd9190613a9c565b6125c79190613ad3565b816080019060ff16908160ff168152505060028160a0019060ff16908160ff16815250505b5b5b5b8094505050505092915050565b600061261d8473ffffffffffffffffffffffffffffffffffffffff166128d6565b15612776578373ffffffffffffffffffffffffffffffffffffffff1663150b7a02612646611324565b8786866040518563ffffffff1660e01b81526004016126689493929190613b8d565b6020604051808303816000875af19250505080156126a457506040513d601f19601f820116820180604052508101906126a19190613bee565b60015b612726573d80600081146126d4576040519150601f19603f3d011682016040523d82523d6000602084013e6126d9565b606091505b50600081510361271e576040517f08c379a000000000000000000000000000000000000000000000000000000000815260040161271590613a41565b60405180910390fd5b805181602001fd5b63150b7a0260e01b7bffffffffffffffffffffffffffffffffffffffffffffffffffffffff1916817bffffffffffffffffffffffffffffffffffffffffffffffffffffffff19161491505061277b565b600190505b949350505050565b600080600090507a184f03e93ff9f4daa797ed6e38ed64bf6a1f01000000000000000083106127e1577a184f03e93ff9f4daa797ed6e38ed64bf6a1f01000000000000000083816127d7576127d6613340565b5b0492506040810190505b6d04ee2d6d415b85acef8100000000831061281e576d04ee2d6d415b85acef8100000000838161281457612813613340565b5b0492506020810190505b662386f26fc10000831061284d57662386f26fc10000838161284357612842613340565b5b0492506010810190505b6305f5e1008310612876576305f5e100838161286c5761286b613340565b5b0492506008810190505b612710831061289b57612710838161289157612890613340565b5b0492506004810190505b606483106128be57606483816128b4576128b3613340565b5b0492506002810190505b600a83106128cd576001810190505b80915050919050565b6000808273ffffffffffffffffffffffffffffffffffffffff163b119050919050565b6040518060e00160405280600060ff168152602001600060ff168152602001600060ff168152602001600060ff168152602001600060ff168152602001600060ff168152602001600060ff1681525090565b6000604051905090565b600080fd5b600080fd5b60007fffffffff0000000000000000000000000000000000000000000000000000000082169050919050565b6129948161295f565b811461299f57600080fd5b50565b6000813590506129b18161298b565b92915050565b6000602082840312156129cd576129cc612955565b5b60006129db848285016129a2565b91505092915050565b60008115159050919050565b6129f9816129e4565b82525050565b6000602082019050612a1460008301846129f0565b92915050565b600081519050919050565b600082825260208201905092915050565b60005b83811015612a54578082015181840152602081019050612a39565b83811115612a63576000848401525b50505050565b6000601f19601f8301169050919050565b6000612a8582612a1a565b612a8f8185612a25565b9350612a9f818560208601612a36565b612aa881612a69565b840191505092915050565b60006020820190508181036000830152612acd8184612a7a565b905092915050565b6000819050919050565b612ae881612ad5565b8114612af357600080fd5b50565b600081359050612b0581612adf565b92915050565b600060208284031215612b2157612b20612955565b5b6000612b2f84828501612af6565b91505092915050565b600073ffffffffffffffffffffffffffffffffffffffff82169050919050565b6000612b6382612b38565b9050919050565b612b7381612b58565b82525050565b6000602082019050612b8e6000830184612b6a565b92915050565b612b9d81612b58565b8114612ba857600080fd5b50565b600081359050612bba81612b94565b92915050565b60008060408385031215612bd757612bd6612955565b5b6000612be585828601612bab565b9250506020612bf685828601612af6565b9150509250929050565b612c0981612ad5565b82525050565b6000602082019050612c246000830184612c00565b92915050565b600060ff82169050919050565b612c4081612c2a565b82525050565b60e082016000820151612c5c6000850182612c37565b506020820151612c6f6020850182612c37565b506040820151612c826040850182612c37565b506060820151612c956060850182612c37565b506080820151612ca86080850182612c37565b5060a0820151612cbb60a0850182612c37565b5060c0820151612cce60c0850182612c37565b50505050565b600061012082019050612cea6000830186612c46565b612cf760e0830185612c00565b612d05610100830184612c00565b949350505050565b600080600060608486031215612d2657612d25612955565b5b6000612d3486828701612bab565b9350506020612d4586828701612bab565b9250506040612d5686828701612af6565b9150509250925092565b600060208284031215612d7657612d75612955565b5b6000612d8484828501612bab565b91505092915050565b600061014082019050612da36000830187612c00565b612db06020830186612c46565b612dbe610100830185612c00565b612dcc610120830184612c00565b95945050505050565b612dde816129e4565b8114612de957600080fd5b50565b600081359050612dfb81612dd5565b92915050565b60008060408385031215612e1857612e17612955565b5b6000612e2685828601612bab565b9250506020612e3785828601612dec565b9150509250929050565b600080fd5b600080fd5b7f4e487b7100000000000000000000000000000000000000000000000000000000600052604160045260246000fd5b612e8382612a69565b810181811067ffffffffffffffff82111715612ea257612ea1612e4b565b5b80604052505050565b6000612eb561294b565b9050612ec18282612e7a565b919050565b600067ffffffffffffffff821115612ee157612ee0612e4b565b5b612eea82612a69565b9050602081019050919050565b82818337600083830152505050565b6000612f19612f1484612ec6565b612eab565b905082815260208101848484011115612f3557612f34612e46565b5b612f40848285612ef7565b509392505050565b600082601f830112612f5d57612f5c612e41565b5b8135612f6d848260208601612f06565b91505092915050565b60008060008060808587031215612f9057612f8f612955565b5b6000612f9e87828801612bab565b9450506020612faf87828801612bab565b9350506040612fc087828801612af6565b925050606085013567ffffffffffffffff811115612fe157612fe061295a565b5b612fed87828801612f48565b91505092959194509250565b600080604083850312156130105761300f612955565b5b600061301e85828601612af6565b925050602061302f85828601612af6565b9150509250929050565b600080604083850312156130505761304f612955565b5b600061305e85828601612bab565b925050602061306f85828601612bab565b9150509250929050565b600081519050919050565b600082825260208201905092915050565b6000819050602082019050919050565b6130ae81612ad5565b82525050565b60006130c083836130a5565b60208301905092915050565b6000602082019050919050565b60006130e482613079565b6130ee8185613084565b93506130f983613095565b8060005b8381101561312a57815161311188826130b4565b975061311c836130cc565b9250506001810190506130fd565b5085935050505092915050565b6000602082019050818103600083015261315181846130d9565b905092915050565b7f4e487b7100000000000000000000000000000000000000000000000000000000600052602260045260246000fd5b600060028204905060018216806131a057607f821691505b6020821081036131b3576131b2613159565b5b50919050565b7f4552433732313a20617070726f76616c20746f2063757272656e74206f776e6560008201527f7200000000000000000000000000000000000000000000000000000000000000602082015250565b6000613215602183612a25565b9150613220826131b9565b604082019050919050565b6000602082019050818103600083015261324481613208565b9050919050565b7f4552433732313a20617070726f76652063616c6c6572206973206e6f7420746f60008201527f6b656e206f776e6572206f7220617070726f76656420666f7220616c6c000000602082015250565b60006132a7603d83612a25565b91506132b28261324b565b604082019050919050565b600060208201905081810360008301526132d68161329a565b9050919050565b7f4e487b7100000000000000000000000000000000000000000000000000000000600052601160045260246000fd5b600061331782612ad5565b915061332283612ad5565b925082821015613335576133346132dd565b5b828203905092915050565b7f4e487b7100000000000000000000000000000000000000000000000000000000600052601260045260246000fd5b600061337a82612ad5565b915061338583612ad5565b92508261339557613394613340565b5b828206905092915050565b7f4552433732313a2063616c6c6572206973206e6f7420746f6b656e206f776e6560008201527f72206f7220617070726f76656400000000000000000000000000000000000000602082015250565b60006133fc602d83612a25565b9150613407826133a0565b604082019050919050565b6000602082019050818103600083015261342b816133ef565b9050919050565b7f4552433732313a20696e76616c696420746f6b656e2049440000000000000000600082015250565b6000613468601883612a25565b915061347382613432565b602082019050919050565b600060208201905081810360008301526134978161345b565b9050919050565b7f4552433732313a2061646472657373207a65726f206973206e6f74206120766160008201527f6c6964206f776e65720000000000000000000000000000000000000000000000602082015250565b60006134fa602983612a25565b91506135058261349e565b604082019050919050565b60006020820190508181036000830152613529816134ed565b9050919050565b7f4e487b7100000000000000000000000000000000000000000000000000000000600052603260045260246000fd5b600081905092915050565b600061357582612a1a565b61357f818561355f565b935061358f818560208601612a36565b80840191505092915050565b60006135a7828561356a565b91506135b3828461356a565b91508190509392505050565b7f4f776e61626c653a206e6577206f776e657220697320746865207a65726f206160008201527f6464726573730000000000000000000000000000000000000000000000000000602082015250565b600061361b602683612a25565b9150613626826135bf565b604082019050919050565b6000602082019050818103600083015261364a8161360e565b9050919050565b600061365c82612ad5565b915061366783612ad5565b9250827fffffffffffffffffffffffffffffffffffffffffffffffffffffffffffffffff0382111561369c5761369b6132dd565b5b828201905092915050565b7f4552433732313a206d696e7420746f20746865207a65726f2061646472657373600082015250565b60006136dd602083612a25565b91506136e8826136a7565b602082019050919050565b6000602082019050818103600083015261370c816136d0565b9050919050565b7f4552433732313a20746f6b656e20616c7265616479206d696e74656400000000600082015250565b6000613749601c83612a25565b915061375482613713565b602082019050919050565b600060208201905081810360008301526137788161373c565b9050919050565b6000610160820190506137956000830188612b6a565b6137a26020830187612c00565b6137af6040830186612c00565b6137bc6060830185612c00565b6137c96080830184612c46565b9695505050505050565b7f4552433732313a207472616e736665722066726f6d20696e636f72726563742060008201527f6f776e6572000000000000000000000000000000000000000000000000000000602082015250565b600061382f602583612a25565b915061383a826137d3565b604082019050919050565b6000602082019050818103600083015261385e81613822565b9050919050565b7f4552433732313a207472616e7366657220746f20746865207a65726f2061646460008201527f7265737300000000000000000000000000000000000000000000000000000000602082015250565b60006138c1602483612a25565b91506138cc82613865565b604082019050919050565b600060208201905081810360008301526138f0816138b4565b9050919050565b7f4f776e61626c653a2063616c6c6572206973206e6f7420746865206f776e6572600082015250565b600061392d602083612a25565b9150613938826138f7565b602082019050919050565b6000602082019050818103600083015261395c81613920565b9050919050565b7f4552433732313a20617070726f766520746f2063616c6c657200000000000000600082015250565b6000613999601983612a25565b91506139a482613963565b602082019050919050565b600060208201905081810360008301526139c88161398c565b9050919050565b7f4552433732313a207472616e7366657220746f206e6f6e20455243373231526560008201527f63656976657220696d706c656d656e7465720000000000000000000000000000602082015250565b6000613a2b603283612a25565b9150613a36826139cf565b604082019050919050565b60006020820190508181036000830152613a5a81613a1e565b9050919050565b6000613a6c82612c2a565b9150613a7783612c2a565b92508160ff0483118215151615613a9157613a906132dd565b5b828202905092915050565b6000613aa782612c2a565b9150613ab283612c2a565b92508260ff03821115613ac857613ac76132dd565b5b828201905092915050565b6000613ade82612c2a565b9150613ae983612c2a565b925082613af957613af8613340565b5b828206905092915050565b6000613b0f82612c2a565b9150613b1a83612c2a565b925082821015613b2d57613b2c6132dd565b5b828203905092915050565b600081519050919050565b600082825260208201905092915050565b6000613b5f82613b38565b613b698185613b43565b9350613b79818560208601612a36565b613b8281612a69565b840191505092915050565b6000608082019050613ba26000830187612b6a565b613baf6020830186612b6a565b613bbc6040830185612c00565b8181036060830152613bce8184613b54565b905095945050505050565b600081519050613be88161298b565b92915050565b600060208284031215613c0457613c03612955565b5b6000613c1284828501613bd9565b9150509291505056fea2646970667358221220d4ba560b80f2ce1502cf5ab45d07388476fad755dba5c3833c86b028a15f74e464736f6c634300080d0033",
  "immutableReferences": {},
  "source": "// SPDX-License-Identifier: GPL-3.0\r\n\r\npragma solidity ^0.8.13;\r\n\r\nimport \"@openzeppelin/contracts/token/ERC721/ERC721.sol\";\r\nimport \"@openzeppelin/contracts/access/Ownable.sol\";\r\n\r\ncontract TheFunixCryptoSim is ERC721, Ownable  {\r\n\r\n    // TASK #1: Define Name and Symbol of our Token\r\n    // - Symbol: FCS\r\n    // - Name: TheFunixCryptoSims\r\n    // HINTS:\r\n    // - Call [name] function and [symbol] function to check\r\n    //\r\n\t\r\n    // *** START Code here***\r\n    \r\n    constructor() ERC721(\"TheFunixCryptoSims\", \"FCS\") {\t\t\r\n        createGenesis();\r\n    }\r\n    \r\n    // *** END Code here***\r\n\r\n    // This struct will be used to represent the attributes of CryptoSim\r\n    struct SimAttributes {\r\n\t\t// 0 -> 3\r\n        uint8 body;\r\n\r\n        // 0 -> 7\r\n        uint8 eye;\r\n\r\n        // 0 -> 127\r\n        uint8 hairstyle;\r\n\r\n        // 0 -> 31\r\n        uint8 outfit;\r\n\r\n        // 0 -> 31\r\n        uint8 accessory;\r\n\r\n        // 0 -> 3\r\n        uint8 hiddenGenes;\r\n\r\n        // 0 - 255\r\n        uint8 generation;\r\n    }\r\n\r\n    // This struct will be used to represent one sim\r\n    struct Sim {\r\n        SimAttributes attributes;\r\n        uint256 matronId;\r\n        uint256 sireId;\r\n    }\r\n    \r\n    // List of existing sims. Use as CryptoSims' \"database\"\r\n    Sim[] public sims;\r\n    \r\n    // Event that will be emitted whenever a new sim is created\r\n    event Birth(\r\n        address owner,\r\n        uint256 id,\r\n        uint256 matronId,\r\n        uint256 sireId,\r\n        SimAttributes attributes\r\n    );\r\n\r\n    /** @dev Function to determine a sim's characteristics.\r\n      * @param matronId ID of sim's matron (one parent)\r\n      * @param sireId ID of sim's sire (other parent)\r\n      * @return The sim's attributes\r\n      */\r\n    function generateSimGenes(\r\n        uint256 matronId,\r\n        uint256 sireId\r\n    )\r\n        internal\r\n        returns (SimAttributes memory)\r\n    {\r\n        SimAttributes memory matronAttr = sims[matronId].attributes;\r\n        SimAttributes memory sireAttr = sims[sireId].attributes;\r\n\r\n        // TASK #2: Define HiddenGenes X of new Sim\r\n        uint8 x = matronAttr.hiddenGenes;\r\n        // START Code here\r\n        if (matronAttr.hiddenGenes == sireAttr.hiddenGenes) {\r\n            x = (x * sireAttr.hiddenGenes + 3) % 4;\r\n        } else if (x < sireAttr.hiddenGenes) {\r\n            x = sireAttr.hiddenGenes;\r\n        }\r\n        // END Code here\r\n\r\n        \r\n        // Init new object to store new Sim's attributes \r\n        SimAttributes memory attributes = SimAttributes({\r\n          body: 0,\r\n          eye: 0,\r\n          hairstyle: 0,\r\n          outfit: 0,\r\n          accessory: 0,\r\n          hiddenGenes: 0,\r\n          generation: 0\r\n        });\r\n\r\n        // TASK #3: Calculate new Sim's generation\r\n        attributes.generation = matronAttr.hiddenGenes + 1;\r\n        if (sireAttr.generation > matronAttr.generation) {\r\n            // START CODE HERE\r\n            attributes.generation = matronAttr.hiddenGenes + 1;\r\n            // END CODE HERE\r\n        }\r\n\r\n        // TASK #4: Calculate remaining atrributes\r\n        // START CODE HERE\r\n        attributes.body = (matronAttr.hiddenGenes * sireAttr.hiddenGenes + 3) % 4;\r\n        if (x==0) {\r\n            attributes.eye = sireAttr.hiddenGenes;\r\n            attributes.hairstyle = matronAttr.hiddenGenes;\r\n            attributes.outfit = (sireAttr.hiddenGenes + matronAttr.hiddenGenes + 1 ) % 32;\r\n            attributes.accessory = (sireAttr.hiddenGenes + matronAttr.hiddenGenes) % 32;\r\n            attributes.hiddenGenes = 0;\r\n        } else if (x==1) {\r\n            attributes.eye = matronAttr.hiddenGenes;\r\n            attributes.hairstyle = (sireAttr.hiddenGenes - matronAttr.hiddenGenes + 128 ) % 128;\r\n            attributes.outfit = (sireAttr.hiddenGenes + matronAttr.hiddenGenes + 1 ) % 32;\r\n            attributes.accessory = (sireAttr.hiddenGenes + matronAttr.hiddenGenes) % 32;\r\n            attributes.hiddenGenes = 1;\r\n\r\n        } else if (x==2) {\r\n            attributes.eye = (sireAttr.hiddenGenes + matronAttr.hiddenGenes ) % 8;\r\n            attributes.hairstyle = (sireAttr.hiddenGenes - matronAttr.hiddenGenes + 128 ) % 128;\r\n            attributes.outfit = (sireAttr.hiddenGenes + matronAttr.hiddenGenes) % 32;\r\n            attributes.accessory = (sireAttr.hiddenGenes + matronAttr.hiddenGenes + 31) % 32;\r\n            attributes.hiddenGenes = 2;\r\n\r\n        } else if  (x==3) {\r\n            attributes.eye = (sireAttr.hiddenGenes + matronAttr.hiddenGenes ) % 8;\r\n            attributes.hairstyle = sireAttr.hiddenGenes;\r\n            attributes.outfit = (sireAttr.hiddenGenes + matronAttr.hiddenGenes) % 32;\r\n            attributes.accessory = (sireAttr.hiddenGenes + matronAttr.hiddenGenes + 31) % 32;\r\n            attributes.hiddenGenes = 2;\r\n\r\n        }\r\n\r\n        // END CODE HERE\r\n\r\n\r\n\r\n        return attributes;\r\n    }\r\n\r\n\r\n    /** @dev Function to create a new sim\r\n      * @param matron ID of new sim's matron (one parent)\r\n      * @param sire ID of new sim's sire (other parent)\r\n      * @param owner Address of new sim's owner\r\n      * @return The new sim's ID\r\n      */\r\n    function createSim(\r\n        uint256 matron,\r\n        uint256 sire,\r\n        address owner\r\n    )\r\n        internal\r\n        returns (uint)\r\n    {\r\n        require(owner != address(0));\r\n\r\n        // Create new sim attributes based on matron and sire\r\n        SimAttributes memory newAtrributes = generateSimGenes(matron, sire);\r\n        \r\n        Sim memory newSim = Sim({\r\n            attributes: newAtrributes,\r\n            matronId: matron,\r\n            sireId: sire\r\n        });\r\n\r\n        // Add new Sim to array of sims\r\n        sims.push(newSim);\r\n        uint256 newSimId =  sims.length -  1;\r\n\r\n        // Create new NFT with ID is New Sim's ID, and owner is defined\r\n        super._mint(owner, newSimId);\r\n\r\n        // Emit Birth event\r\n        emit Birth(\r\n            owner,\r\n            newSimId,\r\n            newSim.matronId,\r\n            newSim.sireId,\r\n            newSim.attributes\r\n        );\r\n        return newSimId;\r\n    }\r\n\r\n\r\n    function createGenesis() internal {\r\n        SimAttributes memory firstAtrributes = SimAttributes({\r\n          body: 0,\r\n          eye: 0,\r\n          hairstyle: 0,\r\n          outfit: 0,\r\n          accessory: 0,\r\n          hiddenGenes: 0,\r\n          generation: 0\r\n        });\r\n\r\n        SimAttributes memory secondAtrributes = SimAttributes({\r\n          body: 3,\r\n          eye: 7,\r\n          hairstyle: 127,\r\n          outfit: 31,\r\n          accessory: 31,\r\n          hiddenGenes: 0,\r\n          generation: 0\r\n        });\r\n        \r\n        sims.push(Sim({\r\n            attributes: firstAtrributes,\r\n            matronId: 0,\r\n            sireId: 0\r\n        }));\r\n\r\n        super._mint(msg.sender, 0);\r\n\r\n        sims.push(Sim({\r\n            attributes: secondAtrributes,\r\n            matronId: 0,\r\n            sireId: 0\r\n        }));\r\n\r\n        super._mint(msg.sender, 1);\r\n    }\r\n\r\n  \r\n    /** @dev Function to allow user to buy a new sim (calls createSim())\r\n      * @return The new sim's ID\r\n      */\r\n    function buySim() external payable returns (uint256) {\r\n\t\t// READ MORE: In the real project, we will check whether 0.02 ether is sent. \r\n        // require(msg.value == 0.02 ether);\r\n        \r\n        return createSim(0, (sims.length - 1) % sims.length, msg.sender);\r\n    }\r\n    \r\n    /** @dev Function to breed 2 sims to create a new one\r\n      * @param matronId ID of new sim's matron (one parent)\r\n      * @param sireId ID of new sim's sire (other parent)\r\n      * @return The new sim's ID\r\n      */\r\n    function breedSim(uint256 matronId, uint256 sireId) external payable returns (uint256) {\r\n        // READ MORE: In the real project, we will check whether 0.02 ether is sent. \r\n        // require(msg.value == 0.05 ether);\r\n        return createSim(matronId, sireId, msg.sender);\r\n    }\r\n    \r\n    /** @dev Function to retrieve a specific sim's details.\r\n      * @param simId ID of the sim who's details will be retrieved\r\n      * @return An array, [sim's ID, sim's genes, matron's ID, sire's ID]\r\n      */\r\n    function getSimDetails(uint256 simId) external view returns (uint256, SimAttributes memory, uint256, uint256) {\r\n        Sim storage sim = sims[simId];\r\n        return (simId, sim.attributes, sim.matronId, sim.sireId);\r\n    }\r\n    \r\n    /** @dev Function to get a list of owned sims' IDs\r\n      * @return A uint array which contains IDs of all owned sims\r\n      */\r\n    function ownedSims() external view returns(uint256[] memory) {\r\n        uint256 simCount = balanceOf(msg.sender);\r\n        if (simCount == 0) {\r\n            return new uint256[](0);\r\n        } else {\r\n            uint256[] memory result = new uint256[](simCount);\r\n            uint256 totalSims = sims.length;\r\n            uint256 resultIndex = 0;\r\n            uint256 simId = 0;\r\n            while (simId < totalSims) {\r\n\r\n                if (ownerOf(simId) == msg.sender) {\r\n                    result[resultIndex] = simId;\r\n                    resultIndex = resultIndex + 1;\r\n                }\r\n\r\n                simId = simId + 1;\r\n            }\r\n            return result;\r\n        }\r\n    }\r\n}",
  "sourcePath": "/Users/dandev947366/Desktop/Sim/contracts/CryptoSims-basic.sol",
  "compiler": {
    "name": "solc",
    "version": "0.8.13+commit.abaa5c0e.Emscripten.clang"
  },
  "schemaVersion": "3.4.11",
  "updatedAt": "2023-01-01T07:45:44.454Z",
  "networkType": "ethereum",
  "devdoc": {
    "kind": "dev",
    "methods": {
      "approve(address,uint256)": {
        "details": "See {IERC721-approve}."
      },
      "balanceOf(address)": {
        "details": "See {IERC721-balanceOf}."
      },
      "breedSim(uint256,uint256)": {
        "details": "Function to breed 2 sims to create a new one",
        "params": {
          "matronId": "ID of new sim's matron (one parent)",
          "sireId": "ID of new sim's sire (other parent)"
        },
        "returns": {
          "_0": "The new sim's ID"
        }
      },
      "buySim()": {
        "details": "Function to allow user to buy a new sim (calls createSim())",
        "returns": {
          "_0": "The new sim's ID"
        }
      },
      "getApproved(uint256)": {
        "details": "See {IERC721-getApproved}."
      },
      "getSimDetails(uint256)": {
        "details": "Function to retrieve a specific sim's details.",
        "params": {
          "simId": "ID of the sim who's details will be retrieved"
        },
        "returns": {
          "_0": "An array, [sim's ID, sim's genes, matron's ID, sire's ID]"
        }
      },
      "isApprovedForAll(address,address)": {
        "details": "See {IERC721-isApprovedForAll}."
      },
      "name()": {
        "details": "See {IERC721Metadata-name}."
      },
      "ownedSims()": {
        "details": "Function to get a list of owned sims' IDs",
        "returns": {
          "_0": "A uint array which contains IDs of all owned sims"
        }
      },
      "owner()": {
        "details": "Returns the address of the current owner."
      },
      "ownerOf(uint256)": {
        "details": "See {IERC721-ownerOf}."
      },
      "renounceOwnership()": {
        "details": "Leaves the contract without owner. It will not be possible to call `onlyOwner` functions anymore. Can only be called by the current owner. NOTE: Renouncing ownership will leave the contract without an owner, thereby removing any functionality that is only available to the owner."
      },
      "safeTransferFrom(address,address,uint256)": {
        "details": "See {IERC721-safeTransferFrom}."
      },
      "safeTransferFrom(address,address,uint256,bytes)": {
        "details": "See {IERC721-safeTransferFrom}."
      },
      "setApprovalForAll(address,bool)": {
        "details": "See {IERC721-setApprovalForAll}."
      },
      "supportsInterface(bytes4)": {
        "details": "See {IERC165-supportsInterface}."
      },
      "symbol()": {
        "details": "See {IERC721Metadata-symbol}."
      },
      "tokenURI(uint256)": {
        "details": "See {IERC721Metadata-tokenURI}."
      },
      "transferFrom(address,address,uint256)": {
        "details": "See {IERC721-transferFrom}."
      },
      "transferOwnership(address)": {
        "details": "Transfers ownership of the contract to a new account (`newOwner`). Can only be called by the current owner."
      }
    },
    "version": 1
  },
  "userdoc": {
    "kind": "user",
    "methods": {},
    "version": 1
  }
}